:020000040800F2
:100000000000042409070008453B0008473B00089E
:100010005B3B00085D3B00085F3B00080000000000
:100020000000000000000000000000008110010836
:10003000613B00080000000011110108A30801083D
:100040005907000859070008590700085907000810
:100050005907000859070008590700085907000800
:10006000633B0008590700085907000859070008B2
:1000700059070008590700085907000859070008E0
:1000800059070008590700085907000859070008D0
:1000900059070008590700085907000859070008C0
:1000A00059070008590700085907000859070008B0
:1000B00059070008590700085907000859070008A0
:1000C0005907000859070008590700085907000890
:1000D0005907000859070008590700085907000880
:1000E0005907000859070008590700085907000870
:1000F0005907000859070008590700085907000860
:10010000590700085907000859070008590700084F
:100110005907000859070008693B000859070008FB
:10012000590700085907000859070008590700082F
:1001300059070008000000000000000059070008EF
:10014000590700085907000859070008590700080F
:1001500059070008590700085907000859070008FF
:1001600059070008590700085907000859070008EF
:1001700059070008590700085907000859070008DF
:1001800059070008590700085907000859070008CF
:1001900059070008590700085907000859070008BF
:1001A000753B000859070008813B00085907000803
:1001B0008D3B000859070008590700085907000837
:1001C000590700085907000800000000000000005F
:1001D00000000000000000005907000800000000B7
:1001E000000000000000000000000000000000000F
:1001F000000000000000000059070008590700082F
:1002000059070008590700080000000059070008B6
:10021000590700085907000859070008590700083E
:1002200059070008993B0008A53B000800000000A2
:100230005907000859070008000000005907000886
:10024000590700085907000859070008590700080E
:1002500059070008590700085907000859070008FE
:1002600059070008590700085907000859070008EE
:100270005907000859070008590700080000000046
:100280005907000859070008000000005907000836
:100290000000000059070008590700085907000826
:0C02A0005907000859070008590700081A
:1002B00010B5054C237833B9044B13B10448AFF3A0
:1002C00000800123237010BD405D00240000000069
:1002D0007CCF020808B5034B1BB103490348AFF3B9
:1002E000008008BD00000000445D00247CCF0208AF
:1002F00001F0FF01102A2BDB10F0070F08D010F8D7
:10030000013B013A8B422DD010F0070F42B3F6D1DA
:10031000F0B441EA012141EA014122F007047FF0F3
:1003200000070023F0E80256083C85EA010586EA4A
:10033000010685FA47F5A3FA87F586FA47F6A5FA86
:1003400087F68EB9EED1F0BC01F0FF0102F0070292
:1003500032B110F8013B013A83EA010313B1F8D13D
:100360000020704701387047002D06BF354603381E
:10037000073815F0010F07D1013015F4807F02BF57
:10038000013015F4C03F0130F0BC0138704700BFA8
:1003900081F0004102E000BF83F0004330B54FEA36
:1003A00041044FEA430594EA050F08BF90EA020FA3
:1003B0001FBF54EA000C55EA020C7FEA645C7FEA36
:1003C000655C00F0E2804FEA5454D4EB5555B8BF59
:1003D0006D420CDD2C4480EA020281EA030382EACA
:1003E000000083EA010180EA020281EA0303362D5C
:1003F00088BF30BD11F0004F4FEA01314FF4801C2F
:100400004CEA113102D0404261EB410113F0004F40
:100410004FEA03334CEA133302D0524263EB4303F7
:1004200094EA050F00F0A780A4F10104D5F1200E95
:100430000DDB02FA0EFC22FA05F2801841F10001F0
:1004400003FA0EF2801843FA05F359410EE0A5F1C4
:1004500020050EF1200E012A03FA0EFC28BF4CF0F5
:10046000020C43FA05F3C01851EBE37101F00045AB
:1004700007D54FF0000EDCF1000C7EEB00006EEBB8
:100480000101B1F5801F1BD3B1F5001F0CD3490842
:100490005FEA30004FEA3C0C04F101044FEA445299
:1004A00012F5800F80F09A80BCF1004F08BF5FEA20
:1004B000500C50F1000041EB045141EA050130BD00
:1004C0005FEA4C0C404141EB0101013C28BFB1F512
:1004D000801FE9D291F0000F04BF01460020B1FA5D
:1004E00081F308BF2033A3F10B03B3F120020CDA30
:1004F0000C3208DD02F1140CC2F10C0201FA0CF00E
:1005000021FA02F10CE002F11402D8BFC2F1200C72
:1005100001FA02F120FA0CFCDCBF41EA0C01904028
:10052000E41AA2BF01EB0451294330BD6FEA040471
:100530001F3C1CDA0C340EDC04F11404C4F120025C
:1005400020FA04F001FA02F340EA030021FA04F36E
:1005500045EA030130BDC4F10C04C4F1200220FAC5
:1005600002F001FA04F340EA0300294630BD21FA03
:1005700004F0294630BD94F0000F83F4801306BFC9
:1005800081F480110134013D4EE77FEA645C18BFBD
:100590007FEA655C29D094EA050F08BF90EA020F54
:1005A00005D054EA000C04BF1946104630BD91EA4C
:1005B000030F1EBF0021002030BD5FEA545C05D14F
:1005C0004000494128BF41F0004130BD14F580048E
:1005D0003CBF01F5801130BD01F0004545F0FE4102
:1005E00041F470014FF0000030BD7FEA645C1ABF37
:1005F000194610467FEA655C1CBF0B46024650EA6E
:10060000013406BF52EA033591EA030F41F4002199
:1006100030BD00BF90F0000F04BF0021704730B51F
:100620004FF4806404F132044FF000054FF00001F4
:1006300050E700BF90F0000F04BF0021704730B5B5
:100640004FF4806404F1320410F0004548BF40428A
:100650004FF000013EE700BF42004FEAE2014FEADF
:1006600031014FEA02701FBF12F07F4393F07F4FBA
:1006700081F06051704732F07F4208BF704793F0BD
:100680007F4F04BF41F40021704730B54FF46074D0
:1006900001F0004521F000411CE700BF50EA0102D3
:1006A00008BF704730B54FF000050AE050EA01027C
:1006B00008BF704730B511F0004502D5404261EBEC
:1006C00041014FF4806404F132045FEA915C3FF42D
:1006D000D8AE4FF003025FEADC0C18BF03325FEACA
:1006E000DC0C18BF033202EBDC02C2F1200300FA7B
:1006F00003FC20FA02F001FA03FE40EA0E0021FAA0
:1007000002F11444BDE600BFDFF834D0002103E05D
:100710000C4B5B58435004310B480C4B42189A4227
:10072000F6D30B4A02E0002342F8043B094B9A42FD
:10073000F9D309F075FE2BF047FF02F061FB70471B
:1007400000000424CC3203080000002434010024FB
:10075000405D0024FC4D0224FEE708B500F03EF9A0
:10076000BDE8084000F064B808B500F041F9BDE804
:10077000084000F065B8000010B5264C2DED028B46
:10078000DFED258A2CF00CFC07EE100ADFED230AC2
:10079000B8EE477AC7EE287A9FED217A67EE877A1E
:1007A00037EE677A87EE270ADFED1E7A60EE277A4A
:1007B0009FED1D0A87EE800A2AF066FEB4F87A30B3
:1007C000DFED1A7A1C2B20EE278A1DD8B4F878208A
:1007D0001E211A440133B2FBF1F001FB10229BB23F
:1007E00004EB820282ED008AA4F87A3008F0D6FB8E
:1007F00030B1BCEEC88A18EE103A98B200F030F86A
:10080000012010F0CBF8BDE7002384ED008AA4F8A6
:100810007830E9E7605D002400FF7F47DE3731C0B4
:100820003333534000401C460AAC88464234E94208
:1008300002480021782281672BF00CBE605D002405
:1008400008B5044A0021044810F064F8034B18600E
:1008500008BD00BF74F70208790700085C5D00243A
:1008600007EE900AB8EEE77ADFED297A10B5B4EE1C
:10087000E77A04462DED028BF1EE10FA82B009D52D
:10088000002002F0D1F802B0BDEC028BBDE81040B0
:1008900002F028B908F090FB1330844207DC1420E2
:1008A00002B0BDEC028BBDE8104002F0BDB808F00C
:1008B00083FB1430241A07EE904AB8EEE78A08F05A
:1008C0007BFB14309FED137A07EE900AF8EEE77A7F
:1008D00037EE677AC8EE077AB7EE007AF4EE477A19
:1008E000F1EE10FA77FE277A9FED0B7A67EE877AA2
:1008F000FCEEE77ACDED017A9DF8040002F094F861
:1009000002B0BDEC028BBDE8104002F003B900BF9D
:100910000000FA4300409C450000C84208B502F0C0
:1009200083F8BDE8084002F073B802F0DFB802F0C7
:10093000E9B802F0F0B8000073B5224D224C2CF05B
:1009400037FB07EE900ADFED216AF8EE677A95ED46
:10095000007A1F4B87EEA66ADFED1E7AF0EE476A3B
:10096000D6EE276AD3ED007AE37F77EEC77A1C2BA9
:1009700086EEA77AF7EE007A77EEC77A9FED167AC1
:1009800067EE877AFCEEE77ACDED017A9DF8046098
:1009900014D8A27F1E211A440133B2FBF1F0DBB25E
:1009A00001FB1022A654E37708F0F8FA10B13046A4
:1009B00000F02EF801200FF0F1FFC0E700232670B1
:1009C000A377F0E7E05D0024E45D002400FF7F47AB
:1009D00004000024333353400000C8420348002180
:1009E0001E228177C1772BF035BD00BFE45D002466
:1009F00008B5044A002104480FF08CFF034B18602F
:100A000008BD00BF98F7020839090008DC5D002422
:100A100010B5044608F0CAFA231A9AB21BB20F3373
:100A200010DA08F0C3FA001B00EB8000C0B26428A3
:100A300028BF642002F0C2F802F056F9BDE8104069
:100A400002F0B0B802F10F039BB21E2BBDE81040BC
:100A500094BF1E20002002F0B1B808B502F0AEF835
:100A6000BDE8084002F09EB802F040B902F04AB971
:100A700002F050B97047704708B501F001FBBDE8BE
:100A8000084001F083BA01F0FDBA40687047416048
:100A9000704700004FF0E022D2F8FC3D43F0807335
:100AA000C2F8FC3D054B064AD3F8B01F0A43C3F811
:100AB000B02F1A6842F001021A607047001000E07F
:100AC00055CEACC5521A02EB5302B2FBF3F070479D
:100AD000014B5868704700BF001000E0704710B528
:100AE00004460C212AF06EFC204610BD036810B5A8
:100AF0001B69044631B19847A26863689B1A034496
:100B0000636010BD9847A060FBE770471FB50823DE
:100B100000206946CDE90230054B1B880093054B48
:100B20001B88019309F09CFB05B05DF804FB00BF36
:100B3000D6400224D840022410B5044604212AF0ED
:100B400041FC204610BD30B585B000200D4614464E
:100B500001A90390CDE9010009F002FC40B14FF07A
:100B6000500383F31188BFF36F8FBFF34F8FFEE7FE
:100B7000019820B1029B01202B60039B236005B0EC
:100B800030BD0000032826D8DFE800F0020B131D5B
:100B9000114B4FF480411A68B2FA82F252090F48A1
:100BA0000FE00D4B4FF400515A68B2FA82F252092D
:100BB000F5E7094B4FF4007109489A68B2FA82F2DE
:100BC00052090AF01BBF044B4FF40071DA68B2FA05
:100BD00082F25209E3E77047045E0024001C0258C9
:100BE00000200258032826D8DFE800F0020B131D6E
:100BF000114B4FF480411A68003A18BF01220F4888
:100C00000FE00D4B4FF400515A68003A18BF012213
:100C1000F5E7094B4FF4007109489A68003A18BF8C
:100C200001220AF0EBBE044B4FF40071DA68003A7F
:100C300018BF0122E3E77047045E0024001C02583D
:100C400000200258032812D8DFE800F00206090E3F
:100C50004FF48041064805E04FF40051FAE74FF4A5
:100C6000007104480AF0CFBE4FF40071F2E77047FC
:100C7000001C02580020025808B5032816D8DFE8E7
:100C800000F0020609124FF48041094805E04FF4D4
:100C90000051FAE74FF4007106480AF0A9FE431E1E
:100CA0005842584108BD4FF40071EEE70020F6E7C6
:100CB000001C02580020025870B5084D002401267F
:100CC000E0B2FFF7D9FF18B12B68012B18BF2E60D7
:100CD00001340435052CF3D170BD00BF045E00243F
:100CE000012380F8781080F8793070477047002031
:100CF0007047000041640039024B18BF0121197090
:100D0000704700BFDB400224704700207047836BB0
:100D10000BB10846184770474FF6FF7070474068A0
:100D200003689B69184770477047704738B5044699
:100D300001F0DEFA04F184052846FFF7ABFE01233B
:100D4000256184F8703038BD08B503680446D3F8CF
:100D50008430984723682046DB6F984700F0C8FD31
:100D6000236820465B6F98470022802109480AF0DB
:100D700045FE0122042108480AF040FE012202211A
:100D800005480AF03BFE00F0B3FD236820465B6F88
:100D90009847F8E7002802580000025810B50446AA
:100DA00014F014F923682046D3F8BC30BDE8104095
:100DB000184701F06BBA01F06FBA000070B501F08E
:100DC000DAFA10490023C1F88430BFF34F8FD1F80D
:100DD000803043F6E074C3F3C900C3F34E335B01C4
:100DE00003EA0406024646EA8275013AC1F87452E3
:100DF000F9D2203B13F1200FF2D1BFF34F8FBFF395
:100E00006F8F70BD00ED00E001F01CBA01F00CBC6A
:100E100001F014BC01F020BA10B5044613F03CFCFC
:100E200060680368BDE810401B69184713F0FBBAFF
:100E300010B5044690212AF0C5FA204610BD0000E6
:100E400090F834100D4B10B590F878401A788C4219
:100E500009D03AB90A490B4A08881488108001223F
:100E60000C801A7010BD002AFCD0064A0449148870
:100E700008880C8010800022F3E700BFD4400224D1
:100E8000D2400224D040022470B50D46194635B92F
:100E9000094B40F2FF21094A09482AF0B5FFC0E991
:100EA0000F52003A074B18BF01221A700368BDE8C1
:100EB0007040D3F8903018470FD0020847D002088E
:100EC00095D00208DA40022408B5094B1B888B42F2
:100ED00003D8084B1B88934205D9074BA321074A27
:100EE00007482AF091FF074B1980074B1A8008BD6D
:100EF000D0400224D2400224DAD002083DD10208B8
:100F000095D00208D6400224D8400224034690F827
:100F10007A0018B1586803681B68184770470000CA
:100F2000014608B5034B186801B1012114F068F8B7
:100F3000012008BDDC4002244069704790F8400061
:100F40007047036B23B9C06A003818BF012070478F
:100F500001207047806870477047043010B50C4618
:100F60000FC884E80F0010BD7047000008B5034AA1
:100F70004FF4E471024B03482AF046FF80D1020887
:100F800018F40208DBD1020810B5044648212AF003
:100F900019FA204610BD000000220E4B10B5114674
:100FA00004460360C26380F84020C0E90522C0E91E
:100FB0000722C0E90922C0E90B22C0E90D22C0E9DD
:100FC0000322C0E9012201200FF06EFD024B1860E0
:100FD000204610BDF0F80208305E002410B40C4624
:100FE00011461A46036B3BB1C36B406BE41A2044B5
:100FF0005DF8044B2BF036BAC06AF8E7036B10B506
:1010000073B1C36B426BC91A5318525C98785C7801
:10101000000440EA04201043DB7840EA036010BD7E
:10102000C26A5318525C59789878000440EA01204B
:10103000F1E7036B43B1C36BC91A436B5A18585C91
:10104000527840EA02207047C36A5A18585C5378B5
:1010500040EA03207047000070B50446006B0D465F
:101060001646D8B1A36B934208D209230D4AA0219A
:101070000D4884F840300D4B2AF0C6FE0368DB684B
:101080009847206B3246616B03681B69984710B91B
:101090000D2384F84030606BE56370BDE06A08445E
:1010A000FBE700BF5CD20208DBD1020849D202088C
:1010B0002DE9F843436904462BB9224BE621224A25
:1010C00022482AF0A1FE08228169FFF7C5FFA16925
:1010D00043F2300646F2643704312046FFF78EFFB4
:1010E000A3691844A36A00F108029A4206D30123B7
:1010F00000206361236AA361BDE8F883636900F19E
:10110000090108222046013321F001016361A16138
:10111000FFF7A2FFD4F8189020464946FFF789FF51
:1011200009F1020180462046FFF783FF09F104011F
:1011300005462046FFF762FFB045D1D1BD42CFD171
:101140000120D9E79ED20208E7D20208DBD10208CB
:101150000129036838BF0121DB6A70B50D460446DA
:101160009847A84204D223682046DB6A9847054680
:101170006B1EE6691022204606EB031606F10801F5
:10118000FFF76AFF06F110012046FFF737FF236AD9
:10119000043B0344C4E9055370BD0000002148220C
:1011A0002DE9F0410446816180F84010FFF754FFBB
:1011B000A6690423634A31462046FFF70FFF48B172
:1011C0000323614A4FF4977184F840305F4B6048C5
:1011D0002AF01AFE06F1080104235E4A2046A161A6
:1011E000FFF7FCFE38B10423574A4FF49B7184F893
:1011F0004030594BEBE706F10C010423574A2046D7
:10120000A161FFF7EBFE074638B105234E4A40F2D5
:101210003D1184F84030524BD9E706F110012046C9
:10122000FFF7ECFE054620B94E4B40F24311464A0B
:10123000CDE706F1140804234B4A20464146FFF748
:10124000CDFE002849D0062384F840300423474AC5
:1012500006F118012046FFF7C1FE00283FD0072302
:1012600084F840304544424F0C2220462946FFF77F
:10127000F3FE05F1080604233A4620463146FFF7FF
:10128000ADFE94F84030002848D0002B48D1A36A26
:10129000AB4249D805F10C0304352046A361294629
:1012A000FFF7ACFE3044294660622046FFF7A6FEF9
:1012B0000644042220463146FFF7CEFE04232D4A81
:1012C00031462046FFF78AFE002838D10123E66127
:1012D0006361A3692362BDE8F0810127B6E7002FAF
:1012E000C0D006F120012046FFF788FE4FF47A7344
:1012F00006F13001B0FBF3F060602046FFF77EFEA0
:1013000006F14001A0602046FFF778FE06F1440197
:10131000E0602046FFF772FE2061A3E7002BB9D002
:101320000A2384F84030D6E7291D2046FFF766FEE1
:1013300085190C2220462946FFF78EFE99E70B23DC
:10134000EFE700BF1AD3020838D302081FD3020800
:10135000DBD1020865D302086AD3020882D30208EF
:1013600087D302089DD30208A9D30208AED302088E
:10137000B3D30208B8D30208C0E90A2100220263ED
:10138000FFF70CBF10B5002304460846E3620B6864
:1013900021639B689847A0622046BDE81040FFF794
:1013A000FDBE000037B5134B0024134D1C60134BDA
:1013B0001C60134B2C601C60124B1960124B1A609E
:1013C000124B1C60124B2A684FF4C0751C701C74C1
:1013D000C3E90244C3E9064403EB02130D4AD26891
:1013E0006A4300924FF450425B680BF005FA2046C6
:1013F00003B030BD485E0024385E00242C5E00241B
:10140000585E0024505E0024545E0024345E0024A4
:1014100008000024145E00244B68012B15D1CB6812
:101420001A071EBF23F00F031033CB608B68180719
:101430001EBF23F00F0310338B60CB688A681B0933
:10144000120953430E4A13607047022B0ED1CB682A
:101450001A0703D023F00F031033CB608B685A07B1
:101460001EBF23F0070308338B607047002BFCD1AD
:10147000CB685807F2D023F007030833EDE700BF2D
:10148000405E00240B4A13680B4430B413600A4AD0
:10149000126893420CD2094CD21A2568B2F5504F0B
:1014A000294428BF4FF45042216030BC0BF006BAEB
:1014B00030BC7047585E0024545E0024505E002407
:1014C000F8B5204C0121204D064623681F4F1B0113
:1014D000E954236805EB03139A601D4B19682268D1
:1014E00005EB0212D1601A68F9680A441A60236891
:1014F000013323602368012B01D900232360236873
:101500001B01EB5C33B1022130460BF0A9F9114B02
:1015100001221A6022683046FB6805EB02154FF481
:10152000C07269685A430BF0CCF90B4B1B681A7AEE
:101530003AB99B7A2BB9094B1868BDE8F8400FF00F
:1015400029BBF8BD385E002408000024145E002486
:10155000345E0024485E00243C5E0024305E00249B
:1015600072B6FEE7014B01221A6070474C5E002400
:1015700038B5164D04462B6813B1154B1B681BBBC1
:10158000144B1868037A63B9134B144A1B681B0188
:10159000D35C012B05D10E4B1B6813B903681B6983
:1015A00098470F4A1368012B0CD10E4B0B491B684F
:1015B0001B01CB5C33B92B6823B902212046136091
:1015C0000BF0ABFB022038BD0120FCE74C5E002491
:1015D000285E00243C5E00242C5E002408000024C9
:1015E000485E0024385E002470B50546002A37D0D6
:1015F000002B35D01B4803240461EC6826074FF408
:10160000B46618BF24F00F04466018BF103404609D
:101610002409C4602C6914F00F0418BFC4F110042D
:1016200084601148114C03601148FFF7BBFE6A6CDF
:10163000104B0F4D1A602846FFF79AFF2060236871
:10164000022B05D10C4B4FF0FF3118680FF076FAE2
:101650002368012BEFD10023084A1360084A136066
:1016600070BD00BF145E00245C5E0024445E002454
:10167000B09D00243C5E0024305E00244C5E0024BB
:10168000285E00242DE9F04F9946436985B0044651
:101690000F4690462BB9294BB221294A29482AF0F6
:1016A000B3FB08228169FFF7D7FCA66920463146C3
:1016B000FFF7BFFCB11C83462046FFF7BAFC311D83
:1016C00082462046FFF79AFC06F10801A36A054608
:1016D0000A189A4226D243F230039B4517D146F2AC
:1016E00064339A4513D190B10246A1612046FFF7B9
:1016F000B3FC0E9B01462A462046CDF80080CDE97A
:1017000001933B46FFF770FF636901336361A3698F
:101710002B4405B908330133626A23F00103934275
:10172000A36109D1012301206361236AA36180F0D1
:10173000010005B0BDE8F08F0020F8E79ED2020856
:10174000BDD30208DBD10208F8B50446816916460C
:101750000822FFF781FCA7692046391DFFF74EFCE0
:1017600007F10801024605462046FFF775FC0146D1
:101770006EB12A46074C084D33460748FFF712FE64
:101780002846FFF7F5FE20602368002BF8D00120E3
:10179000F8BD00BF445E0024B09D0024F0B5C768CA
:1017A0000122154C3901154E2368B1FBF3F1636832
:1017B0005943134B5A630901E26836681505B61A96
:1017C000B74215D3A468C4F110042C435C640D4CDB
:1017D000C2F11E02246812012144D9631A64002256
:1017E0001A61094ADA614268DA60084A1A60F0BD93
:1017F00045F010055D64EAE7145E0024405E0024B5
:10180000001000525C5E00240B0009FF0123010060
:101810000C4B00220270196882600131196019684E
:10182000012900D91A60084B084A1B68D2689B1A24
:10183000C2689A4202D3064B01221A60054B18680F
:101840000FF0A8B92C5E0024405E0024145E002432
:10185000285E0024305E00240121002208B50846DD
:101860000FF022F90A4B186028B90A4B28210A4ABE
:101870000A482AF0C9FA0022042101200FF0B3F926
:10188000074B186018B9074B2C21034AF0E708BD35
:10189000645E002418D4020861D4020890D40208BF
:1018A000605E0024F4D40208024B4FF0FF31186848
:1018B0000FF044B9645E0024014B18680FF06AB958
:1018C000645E0024024B002118680FF037B900BF96
:1018D000645E0024FFF7F0BF0023034803491A4663
:1018E00000680FF0BBB900BF605E00242800002430
:1018F00013B50023074C01A91A4620680FF0DFF941
:101900004FF0FF33002201A920680FF0D8F902B090
:1019100010BD00BF605E002403685B6C18470120A7
:101920007047FEE740F2EF307047000010B5044604
:101930004FF0FF31D0F8A40D0FF074F86068036821
:101940001B68984778B9637A6BB1237A5BB984F8DE
:10195000A03D204623685B6A9847D4F8A40DBDE8F3
:1019600010400FF082B80B490B4A0B681B01D35C87
:10197000012BF2D1207A0028EFD1A07A0028ECD1F7
:10198000086884F8A03D02EB00102372FFF706FF01
:10199000E3E700BF2C5E002408000024054B4FF055
:1019A00080620360044BC3F88820BFF34F8FBFF3FE
:1019B0006F8F704734F9020800E100E010B504466B
:1019C00040F6A851FFF7EAFF204629F0FBFC20462D
:1019D00010BD0000104B82B0D3F8342142F0100249
:1019E000C3F83421D3F8342102F010020192019A95
:1019F000DA6F42F01002DA67DA6F22F01002DA676B
:101A0000064B074A1A62074A5A62074B4FF0806238
:101A10009A6002B0704700BF004402585C9E0024E8
:101A2000711C00082319000800E100E008B50A282D
:101A300009D8DFE800F006100E080808081010109A
:101A40001000022008BD054B9121054A05482AF0E7
:101A5000DBF90020F6E70120F4E700BF36D50208E5
:101A600051D502089CD5020838B50C46887FFFF78F
:101A7000DDFF124BA58AE28A586342EA05422169DA
:101A80005A64628BD963521B1A642568082D0ED1E3
:101A90009A611A6158620A4A207F42EA0062DA615A
:101AA000E2681A62074A5961D9601A6038BD00229B
:101AB000D8611A61E2689A63034AF6E7001000529F
:101AC00009000100012302000123030008B50B28CF
:101AD0000BD8DFE800F00612100A0A0A0A08080804
:101AE0000808022008BD0520FCE7054B7021054AC7
:101AF00005482AF089F90020F4E70120F2E700BF49
:101B000036D50208FED502089CD502082DE9F84317
:101B10004F7F89463846FFF7D9FF99F81E50804617
:101B20002846FFF7D3FF06462846FFF77FFFB9F8A0
:101B30001410B9F81A40B9F81820454B641A521A13
:101B40001C649C611A61B9F81620586342EA01428C
:101B5000D9F810105A64D9F80420D963DA60D9F89A
:101B6000004099F81C20802C22D00FD8202C66D061
:101B7000402C64D0042C5CD048EA0260344BAF4265
:101B800040F40030D86160D0324A3FE0B4F5807F45
:101B900004D0B4F5007FEFD12F4800E02F4840EA91
:101BA0000262DA61D9F80C201A625E6259612CE097
:101BB00048EA0260D9F8084040F40030D8615E621B
:101BC0005961211DD962217841B1012921D0244BCD
:101BD00040F20B11234A24482AF016F9DA69618889
:101BE00022F47F42013922F0100242EA0122DA6136
:101BF0000122174BD96941F02001D961D9698906C1
:101C0000FCD410219960002ABED0184A1A60BDE8A1
:101C1000F883D969FF3A608821F47F4118BF012217
:101C2000013821F0100141EA002141F01001D96191
:101C3000DFE748EA026242F40032DA61B5E748EAD7
:101C40000262034B42F40032F7E742F20132DDE771
:101C50000010005201230100090002000A000200E6
:101C600048D6020862D602089CD502080123020069
:101C7000024B1B68586803685B691847DC40022404
:101C800090F8A03D10B50446D3B903689B6A984705
:101C900019491A4A0B681B01D35C012B2AD1184839
:101CA000006838BB207A28BBA07A18BB086884F883
:101CB000A03D237202EB0010BDE81040FFF76EBD9F
:101CC000037A43B1002303720B4B18680B4B03EBF1
:101CD0000010FFF79DFD606803681B68984748B9CE
:101CE000637A3BB1236884F8A00D20465B6ABDE8A7
:101CF0001040184710BD00BF2C5E002408000024CF
:101D0000285E002470B504460E4B0C300026254694
:101D1000602260602672667245F8203B294613F007
:101D2000B1FA04F55A63EE6024359D42FBD184F884
:101D3000A06D0020C4F8A46D0EF03CFEC4F8A40D04
:101D4000204670BD34F90208034B1A68D207FCD450
:101D500023229A60704700BF001000520B4A53695B
:101D6000DB0311D500290FDD00F01F031944BFF379
:101D70004F8F0144C2F8680220300B1A002BF9DCA7
:101D8000BFF34F8FBFF36F8F704700BF00ED00E0D0
:101D900030B5104C2568ED07FCD423250904FF2B32
:101DA000A5604FF0010541EA050165636164E063E8
:101DB0000CD0094922F07F42656241EA0363E36186
:101DC000064B22626061E060236030BDE561044B38
:101DD000A263F9E7001000520900010001000200AF
:101DE0000100030030B50E4C2568ED07FCD4232517
:101DF0001204FF2BA5604FF0010542EA050265635E
:101E00006264E063E16007D0064A42EA0363E3618B
:101E100065626061226030BD034BE3612560FAE7D3
:101E20000010005201000200010002FF30B50B4C0F
:101E30002568ED07FCD4232512041B06A5600125A7
:101E400043F400332A4365636264E063E160E36165
:101E5000034B65626061236030BD00BF001000521B
:101E600001000200012070474020704700EB811004
:101E70000830704700EB8110083070470120704730
:101E800042F6BC10704742F6BC1303FB0100083059
:101E9000704742F6BC1303FB010008307047012075
:101EA00070471020704700EB01100830704700EBBE
:101EB000011008307047084602F0ACBE034B10B565
:101EC0000446036010F013FF204610BDECF9020831
:101ED00010B50446FFF7F2FF4821204629F072FAB8
:101EE000204610BD034B10B50446036010F0FFFE02
:101EF000204610BDB8F9020810B50446FFF7F2FFFE
:101F000042F6C411204629F05DFA204610BD0000BB
:101F1000034B10B50446036010F0E9FE204610BDE7
:101F200084F9020810B50446FFF7F2FF1821204695
:101F300029F048FA204610BD094B10B5044603604D
:101F400000F527503030FFF7B9FF04F12C00FFF700
:101F5000C9FF04F11400FFF7DBFF204610BD00BFEE
:101F600020FA020808B50248FFF7E6FF08BD00BFE7
:101F7000346D002410B50446FFF7DEFF42F69831B9
:101F8000204629F01FFA204610BD00002DE9F3413C
:101F900002F024FB0024054602F024FB2346014600
:101FA0002246284600941EF0DFFB274B274A204696
:101FB000274D1A6005F0F6FA264B274A27489A6003
:101FC0001EF07EFA2B68BFF35B8FDB0736D4284602
:101FD00029F0FAF990B3224C224F234B04F114005C
:101FE00007F14C0604F12C0823606060C4F80880F7
:101FF000E760266110F07CFE1C4B4046636110F0E8
:1020000077FE1B4B3846E36210F072FE04F5005376
:10201000184A03F63820C3F8F02906F07BFC224664
:1020200007F14801304606F02FFC304602F0F2FD81
:10203000114829F007FF284629F0D2F90F4802B0CD
:10204000BDE8F041FEF772BE40410224F85E002474
:10205000306D0024185F0024FC5E00242C00002456
:10206000346D00242497002420FA020884F9020821
:10207000B8F90208ECF90208651F0008685E002440
:10208000704700000148FEF75FBE00BF685E002495
:1020900070B52A4E2A4B2B4C30462B4D2360FFF750
:1020A00031FE284622F002FA28481BF09DFE284BFC
:1020B00000224FF4807127481A8683F858205A6608
:1020C00083F87020DC60C3E912122349C3E91A12B5
:1020D00022490B604FF4F0710180214801804FF4D8
:1020E0008871204801802048018020492048C3E9A8
:1020F0000422C3E90622C3E90822C3E90A22C3E98C
:102100000E22C3E91022C3E91422C3E91722C3E94E
:1021100001650A701749C3F888201960164983F8C9
:1021200034205A67C3F88C20144AC3E91E011449AD
:10213000C3F88420C3F8801070BD00BF845F002402
:10214000ECF702082C6D0024185F0024FC5E0024CC
:10215000685E0024D040022401000001DC4002241B
:10216000D6400224D2400224D8400224D440022483
:102170000000010104F8020800044400C4F702084A
:10218000160014000148FFF709BC00BF845F00245B
:102190000020704781807047C1807047018170477F
:1021A000418170477047704770477047704710B45F
:1021B000C4880368121B84885B6D091B12B25DF82A
:1021C000044B09B218474FF6FF7383814FF0FF337A
:1021D00003621368C36110607047002070478B88EA
:1021E000838001207047704780F82610704790F870
:1021F0002600704710B50022B1F90840B1F90A1065
:10220000028042808480C18010BD00220280428012
:102210008280C28070470177704780ED080A70475E
:1022200080F82410704780F825107047012070470F
:10223000983070478C3070478430704770477047D3
:1022400070470000034B902283F85A2383F85823E9
:10225000704700BF00E100E0094A0A49D3680A4814
:10226000C3F30A03013B9BB20B801169C1F30A015E
:10227000013901801364536B43F0010353637047CA
:1022800000100050CE980024CC980024014BD3F8C5
:10229000AC00704700100050024B0122C3F8AC1094
:1022A0005A627047001000500163C0E90D21704769
:1022B000704700EB8100114640680368DB681847EF
:1022C00080F83C10704710B504462C2129F07AF8AC
:1022D000204610BD10B50446482129F073F8204669
:1022E00010BD10B50446BC2129F06CF8204610BD85
:1022F00038B5044612F0EDF823689D6E1AF094FA92
:1023000001462046A8472368084A2046D3F88C5047
:1023100000230749A8476368064A5364064B5A607E
:10232000064A1A639A63064A5A6338BD00FA0924BA
:1023300000000424D899002490990024000000D0C3
:1023400000FA050012F0ACB838B504460D46406CF2
:102350004FF0FF310EF066FB606C0EF086FB24231D
:1023600003FB0545002385F8283094F828300BB985
:10237000236BA36338BD12F05CB812F0CCB990F8AF
:10238000252012B103685B6918477047124A5369E8
:10239000DB0370B51ED50023C2F88430BFF34F8F26
:1023A000D2F8803043F6E074C3F3C900C3F34E3370
:1023B0005B0103EA0406014646EA81750139C2F869
:1023C0007452F9D2203B13F1200FF2D1BFF34F8F9B
:1023D000BFF36F8F70BD00BF00ED00E008B531B1F5
:1023E000044B4FF4B871044A044829F00DFD90F8ED
:1023F000290008BDA0D60208B4D602083ED80208BB
:1024000010B531B1064B4FF4B571064A064829F0B4
:10241000FBFC406811460368BDE810401B6B184781
:10242000A0D6020881D802083ED8020808B529B112
:10243000034B7921034A044829F0E6FCC06808BD33
:10244000A0D602082FDA02083ED8020810B50446CA
:1024500029B1194BA221194A194829F0D5FC052A9E
:1024600015D8DFE802F0031115171C224068036835
:102470001B69984758B1012384F8293084F82C301F
:102480000023C4E9043302E0002380F8293010BDA2
:102490000362F5E70362012380F82A30F0E70023A6
:1024A00080F8293001230362F1E7003B18BF0123C4
:1024B00080F82D30EBE700BFA0D60208E4DB02086D
:1024C0003ED8020810B50C4611461A462CB1064BF0
:1024D0009021064A064829F097FCC46040680368CA
:1024E000BDE810409B681847A0D60208B8DD020876
:1024F0003ED8020808B529B1054B8221054A064895
:1025000029F082FCC0E90411C0E9063208BD00BF11
:10251000A0D6020893DF02083ED8020890F83D30AA
:1025200010B5044653B14FF0FF31406C0EF07AFA0B
:10253000002384F83D30012384F83E3010BD90F82C
:1025400025201AB190F8242002B1186070470000CD
:1025500010B50446104629B1134BD021134A144834
:1025600029F052FC94F8293033B1124B1B6893F8D0
:102570006B2063691344636194F82B300BB901201D
:1025800010BDA368036303685B699847002394F850
:102590002C0084F82B300028F1D194F82D30002B3A
:1025A000EED184F82900EBE7A0D602084FE102083B
:1025B0003ED80208DC40022470B51A4C054611F0E2
:1025C0007BFF94F8293013B994F82A30ABB1E16954
:1025D000D4E90532534322694A4393420DD394F818
:1025E0003C0038B19B1AB3FBF1F2994298BF02F15B
:1025F000FF326262012384F82E300123206C84F8BC
:102600003D300EF0C7FA94F83E302BB1606C0EF0FE
:102610002CFA002384F83E3068680368BDE87040F7
:102620001B69184790990024034B4FF080629A6011
:102630004FF080729A60704700E100E0084B4FF065
:102640008062C3F88820BFF34F8FBFF36F8F4FF0C6
:102650008072C3F88820BFF34F8FBFF36F8F70472E
:1026600000E100E0F8B5034690F82800D8B94FF42F
:1026700080729E6B0125D8609A8506F5BF2218618D
:1026800002F5007258619861D861186258629D62C3
:1026900083F82E00D3E90C473C44A2420AD90B4BE5
:1026A00052210B4A03E00B4B40F2C5110A4A0B487A
:1026B00029F0AAFB9E609A634FF4F07381F83450BE
:1026C000CB864FF4887308630B87F8BDA7E4020834
:1026D000E2E40208F0E2020820E302083ED8020821
:1026E000002370B5124E04468380124B036033689A
:1026F00093F858200AB1D86C00B998680368DB6A6F
:102700009847431E5D425D413368D86C30B1036821
:10271000DB6A9847012808BF45F001052DB9064B33
:102720002721064A064829F06FFB204670BD00BFEE
:10273000DC40022434FA020885E60208E3E60208D7
:102740001CE7020870B5254E3568BFF35B8F15F0A6
:10275000010540D1304628F037FE00283BD0204C00
:10276000204B04F134002561E584A562A585C4E908
:102770000035C4E902551BF01CFE04F1580014F0AA
:10278000C1F9194B2046A365184B40F8843BFFF76D
:10279000A7FF174B1748C4F884302433C4F890506F
:1027A000C4F88C304FF4C803C4F89C50C4F8A85047
:1027B000C4E928350023C4F8AC30C4F8B030C4F8FC
:1027C000B430C4F8B8300C4BC4F8983029F03AFB58
:1027D000304628F005FE024870BD00BFD0980024A6
:1027E000D49800247C1E030854FA0208CCFA02088C
:1027F000C81E030841220008001F030838B5184C02
:1028000023685BB3174B184A1B6C11888B4216D197
:10281000164B002519880AF047FD236893F86A20B3
:1028200083F87C50013283F86A20FFF755F820685E
:1028300012F0CCFB2846BDE83840FEF7A3B90AF0F9
:1028400033FD2468236820461B6A98470123002033
:1028500084F87C30BDE83840FEF7C4B938BD00BF0D
:10286000DC40022400100050CE980024CC980024B4
:102870002DE9F743044601264FF4B4674FF0FF31CA
:10288000206C0EF05BF94FF0FF31606C0EF0CAF86F
:1028900094F82E3043B36568D4F820802B6884F810
:1028A0002B60B8F1000F23D05B6A41462846984759
:1028B000002323622B684FF4F07200972846D3F868
:1028C00014804FF48873A168C047236984F82C00F2
:1028D00001332361F0B12B6828469B6A9847013881
:1028E0000023E06084F82E30606C0EF0BEF8C5E77F
:1028F000626A002ADED02846D3E909939847616AC4
:1029000001442846C8472369626AC4F824801344F6
:102910002361CFE70120E3E7014808B5FFF7A8FFEF
:102920009099002438B514480025FEF735FB134C68
:10293000134B2A462946012023604FF48073A56378
:10294000A387A38584F83E5084F82E50C4E90C5523
:10295000C4E91055C4E90155C4E90355C4E9055556
:10296000C4E90755C4E909550EF09EF820642846CD
:102970000EF020F8606438BDD899002490990024A6
:1029800018FB020810B588B01C220021012401A800
:1029900029F060FD164800231649042284618382D1
:1029A00002610377436380F83830C0E90013C0E95F
:1029B0000233C0E90933C0E90B3308F031F908B13B
:1029C00000F000FD062340F2FF7201A908480194BF
:1029D000CDE902330423CDE90423002306938DF8C7
:1029E0001D3007F043FE08B100F0ECFC08B010BD4C
:1029F000209A00240021024008B500F08DF8FFF76E
:102A0000C1FF00F0F5F8BDE8084000F027B800006D
:102A1000034B1B781BB9042102480DF0C9BD704758
:102A2000D09A0024849A00240A4B1B7810B50446DF
:102A300073B9FFF7EDFF502C20464FF0640228BF1A
:102A40005020054BC0EB00401B68B0FBF2F09863D0
:102A500010BD00BFD09A0024849A002410B5002431
:102A60008AB01C22214603A80294CDE9004429F033
:102A7000F1FC1948194B84608461C0E900344FF6B9
:102A8000FF73C0E903340DF043FB08B100F09AFC7A
:102A900069461148009402940DF0E6FD08B100F07B
:102AA00091FC0023602203A90B4805930793CDE90D
:102AB000032304220DF09CFB08B100F083FC0648C0
:102AC00000F030FF0020064B1870FFF7ADFF0AB092
:102AD000BDE81040FFF79CBF849A00240018004016
:102AE000D09A00240020FFF79FBF0000034B012273
:102AF000042103481A700DF0B5BD00BFD09A002420
:102B0000849A0024024B00221A70FFF781BF00BF95
:102B1000D09A00247047704710B500248AB01C2258
:102B2000214603A80294CDE9004429F093FC1B48F8
:102B30001B4B84820477446380F83840C0E900343A
:102B4000042303610123C0E902448361C0E909440D
:102B5000C0E90B4408F064F808B100F033FC6946A2
:102B60000E48009408F044F908B100F02BFC06234D
:102B7000012240F2FF7109480593CDE903230423A4
:102B8000CDE90613002303A908938DF8253007F03B
:102B90006DFD08B100F016FC0AB010BDD49A0024F7
:102BA00000200240034B1B781BB9082102480DF09E
:102BB000FFBC7047389B00243C9B00240A4B1B78C9
:102BC00010B5044673B9FFF7EDFF502C20464FF0C7
:102BD000640228BF5020054BC0EB00401B68B0FBCF
:102BE000F2F0D86310BD00BF389B00243C9B00244A
:102BF00010B510229CB0002400210DEB020029F03A
:102C000029FC1C22214608A80394CDE9014429F09F
:102C100021FC342221460FA829F01CFC2F48304B00
:102C20008460C0E900344FF6FF73C0E90544C0E991
:102C300003340DF03DFA08B100F0C4FB4FF48053AB
:102C400004A9264804930DF059FB08B100F0BAFB23
:102C500022480DF05DFA08B100F0B4FB002401A990
:102C60001E480394CDE901440DF0FEFC08B100F0CC
:102C7000A9FB6023082208A918480E94CDE908345E
:102C8000CDE90A44CDE90C440DF0B2FA08B100F0E8
:102C900099FB00234FF400520FA910481393179388
:102CA0001B93CDE914234FF00072CDE90F33CDE92A
:102CB0001133CDE918230DF021FD08B100F082FB9E
:102CC000064800F02FFE0020064B1870FFF776FF35
:102CD0001CB0BDE81040FFF765BF00BF3C9B00245F
:102CE00000040140389B002470470000034B012280
:102CF000082103481A700DF0B5BC00BF389B0024B2
:102D00003C9B0024024B00221A70FFF74BBF00BF10
:102D1000389B002470470000014900200FF062BB7F
:102D2000210F000810B59CB04C22002109A829F001
:102D300091FB2022002101A829F08CFB1F4B4FF0B2
:102D4000FF320420C3F8B0200BF0E4F80023009316
:102D50001B4B9A6942F440429A619A6902F44042DC
:102D60000092009A9A699004FCD501224FF48033B6
:102D700000240C2109A81B94CDE9092302234FF458
:102D80008C72CDE91233CDE9163318930423CDE9C3
:102D90001412CDE919340BF0F9F803213F2301A8EF
:102DA00003940894CDE901310823CDE9043470235C
:102DB000CDE906340BF030FC1CB010BD00440258C5
:102DC0000048025800B5B1B0A422002107A829F09C
:102DD00041FB4FF00272002306216846CDE9002333
:102DE00018224FF48573CDE902230223CDE90413A1
:102DF0000693202313930BF091FE31B05DF804FB92
:102E00002DE980489BB01022002101240DA8032544
:102E100029F020FB08F0B6F81B234FF01040ADF866
:102E200034401094CDE90E030DA808F0C9F8192319
:102E30000DA88DF835408DF83C308DF83F508DF859
:102E4000424008F0BDF802230DA88DF835304FF050
:102E500010530E9313238DF83C3008F0B1F8112372
:102E60000DA88DF835508DF83C308DF8434008F0B2
:102E7000A7F8042008F094F8D84B5A6912F40032ED
:102E800011D1BFF34F8FBFF36F8FC3F85022BFF341
:102E90004F8FBFF36F8F5A6942F400325A61BFF30C
:102EA0004F8FBFF36F8FCD4A536913F4803323D113
:102EB000C2F88430BFF34F8FD2F8803043F6E0740D
:102EC000C3F3C900C3F34E335B0103EA04060146B2
:102ED00046EA81750139C2F86052F9D2203B13F1FC
:102EE000200FF2D1BFF34F8F536943F48033536106
:102EF000BFF34F8FBFF36F8FB94D07F0CDFAFFF7D8
:102F000011FF0024FFF75EFF142200210DA829F015
:102F1000A1FAD5F84031012240F6040143F0400304
:102F2000B04801264FF0030AC5F840314FF0040BBA
:102F3000D5F840314FF0020840F22A274FF0080937
:102F400003F040030293029BD5F8403143F48063C1
:102F5000C5F84031D5F8403103F480630393039BF7
:102F6000D5F8403143F00803C5F84031D5F8403179
:102F700003F008030493049BD5F8403143F0100399
:102F8000C5F84031D5F8403103F010030593059B97
:102F9000D5F8403143F40073C5F84031D5F84031DD
:102FA00003F400730693069BD5F8403143F0800389
:102FB000C5F84031D5F8403103F080030793079BF3
:102FC000D5F8403143F48073C5F84031D5F840312D
:102FD00003F480730893089BD5F8403143F0200335
:102FE000C5F84031D5F8403103F020030993099B1F
:102FF000D5F8403143F00203C5F84031D5F84031EF
:1030000003F002030A930A9BD5F8403143F004030E
:10301000C5F84031D5F8403103F004030B930B9B06
:10302000D5F8403143F00103C5F84031D5F84031BF
:1030300003F001030C930C9B08F0E0FC00224FF41A
:10304000C441694808F0DAFC00224FF40071674877
:1030500008F0D4FC00220621654808F0CFFC40F6B9
:1030600004030DA95F48CDE90D36CDE90F4408F002
:103070003BFB4FF4C4430DA95B480F94CDF840A02F
:10308000CDE90D3608F030FB4FF400730DA9574819
:10309000CDE90D36CDE90F4A08F026FB4FF4881331
:1030A0000DA951480F96CDE90DB308F01DFB0DA9F0
:1030B0004F48CDE90D86CDE90F4408F015FB0DA969
:1030C0004B48CDE90DB6CDE90F6408F00DFB224663
:1030D0000521082007F004FF082007F033FFD5F88A
:1030E00034312246052133437A20C5F83431D5F8EE
:1030F0003431404D33400193019B07F0F1FE7A20BB
:1031000007F020FF3C4B2846EC65C5E90034C5E9D3
:103110000284C5E91148C5E91344C5E9154407F01F
:10312000DCFF31462846354D08F0A0F83422214610
:103130000DEB020029F08EF9314B28222A2140F2B2
:103140000A202C61AC8685F83640C5E90034092395
:10315000C5E905230B23C5E9071340F21B13C5E995
:10316000090340F21D132846C5E90B73C5E9024463
:1031700009F0A2FF4FF4806C05204FF4F0714FF47A
:103180008872FF230D941892ADF864308DF8664074
:103190001C4FCDE914C04FF05040CDE90E14CDE9DD
:1031A0001601CDE910260DA922462846164DCDE977
:1031B00012340AF04CF8DFF858E0144B28462C6221
:1031C000C5E900E3C5E90246C5E90444C5E906448A
:1031D00008F063FD4FF4805128461BE000ED00E04D
:1031E0000044025800180258001C025800200258DF
:1031F000000002585C9E002400100052309C002405
:1032000000100050A09B0024089E0024D08B80302A
:10321000001C005808F06DFF21462846564D08F066
:103220008EFF5648564B0463C463C0E900361A2328
:10323000C0E90244C0E90438C0E90644C0E9084ACC
:10324000C0E90A44C0E90D940AF062FB40F20113A0
:103250002046ADF8343006F0A5FD0DA9204606F055
:1032600083FE204606F066FD464B10224FF4406177
:103270003846CDF83480C7E900364023C7E9042337
:103280004FF48073C7E906344FF48053C7E908133D
:103290004FF480430DA9BB620723C7E9026BCDE958
:1032A0000E3BCDE9103ACDE912880CF051FC3648BE
:1032B000364B848003600662C0E9054407F0ACFE2B
:1032C000334B3448036009F0E9F8FDF7D3FBFFF70F
:1032D00093FBFDF742FAFDF7CFFBFDF7CCFB4FF672
:1032E000FF72294638460D94C5E90069C5E90264B4
:1032F0000CF056FC304607F00FF94FF6FF722946E6
:103300003846C5E90089C5E902640CF049FC4FF66E
:10331000FF7229463846C5E900A9C5E902940CF0B8
:103320003FFC4FF408734FF6FF7229460D93384661
:103330000D9BAE60EB60C5E900B90CF031FC40F2CA
:10334000036138460CF04BFC05F00AFE0DF0B6FAAE
:10335000FDF70AFA104A214610480DF0DBFA104B2F
:10336000104A2146186010480DF0D4FA0F4B18602F
:103370000DF0B6FAFEE700BF889B0024D49B002422
:103380000050005240410052C49E002400300240D0
:1033900000300052B09D002478FB0208870A000824
:1033A0009C9B002454FB020819290008989B0024C8
:1033B0000268034B9A4201D107F09CB8704700BFE6
:1033C00000100040704700000A4B82B00F216FF0E0
:1033D0000100D3F8542142F00202C3F85421002224
:1033E000D3F8543103F002030193019B02B007F0BC
:1033F00077BD00BF00440258036884B0284A934256
:1034000025D1284A13680133012B13600CD1264BB8
:10341000D3F8382142F02002C3F83821D3F83831EC
:1034200003F020030093009B1F4B4FF08071D3F8F3
:10343000402142F00102C3F84021D3F8403103F0AB
:1034400001030193019B084604B007F077B8174ABF
:10345000934222D1134A13680133012B13600CD11C
:10346000114BD3F8382142F02002C3F83821D3F8A9
:10347000383103F020030293029B0B4B4FF0806125
:10348000D3F8402142F00402C3F84021D3F8403180
:1034900003F004030393039BD5E704B0704700BF18
:1034A00000200240EC9E002400440258002102400B
:1034B000026882B0084B9A420CD1084BD3F83821ED
:1034C00042F40072C3F83821D3F8383103F40073A2
:1034D0000193019B02B07047003002400044025843
:1034E0000F4B07B502689A4217D10E4B05215A209F
:1034F000D3F8342142F01002C3F834210022D3F86B
:10350000343103F010030193019B07F0E9FC5A20CA
:1035100003B05DF804EB07F015BD03B05DF804FBE4
:10352000001000520044025810B5B8B004461422EE
:10353000002103A828F08EFFC022002108A828F04F
:1035400089FF22681B4B9A4231D11022002308A820
:10355000CDE908230BF0E2FA08B1FFF733FF164C70
:103560004FF4405201211548D4F8403143F008038C
:10357000C4F84031D4F8403103F008030193019BB3
:103580001223CDE903230223CDE90513042303A964
:10359000079308F0A9F8D4F8543143F08003C4F835
:1035A0005431D4F8543103F080030293029B38B0B5
:1035B00010BD00BF001C005800440258000C025807
:1035C000026808B50B4B9A4212D10B4A4FF40051D6
:1035D0000A48D2F8543123F08003C2F8543108F07D
:1035E0006BF94FF480510548BDE8084008F064B914
:1035F00008BD00BF001C005800440258000C0258CF
:1036000037B53C4B054602689A4270D13A4B0221CD
:103610003A4C4FF0007ED3F83421DFF8ECC020465E
:1036200042F02002C3F834218022D3F8343103F071
:1036300020030193019B1123C4E900C30023C4E9C3
:103640000232C4E9073220222361C4E90513C4E928
:1036500009E24FF4A0414FF40032C4E90D33C4E94C
:103660000B1209F066FE08B1FFF7ACFE00222348FA
:10367000114609F0CDFE08B1FFF7A4FE2C63132319
:103680001F4A082125644FF4A0401E4CC4E90023C2
:103690000023C022C4E9023220222362C4E90612B8
:1036A0004FF00071C4E909124FF42032C4E90B0253
:1036B0002046C4E90433C4E90D3309F03AFE08B1E9
:1036C000FFF780FE00220F48114609F0A1FE08B165
:1036D000FFF778FE6C63002205217920256407F04E
:1036E000FFFB792003B0BDE8304007F02BBC03B0EE
:1036F00030BD00BF0030005200440258449D0024F9
:10370000C0010052D89C00240002005270B514225F
:10371000BAB0044600210DEB020028F09BFEC02247
:1037200000210AA828F096FE22683C4B9A4272D1EA
:103730004FF0005200230AA8CDE90A23C92318221A
:10374000CDE914230223CDE916331523189341F252
:1037500056531B930BF0E2F908B1FFF733FE304BE1
:10376000002402260E25D3F8442105A92D4842F055
:103770000802C3F84421D3F8442102F00802019260
:10378000019AD3F8402142F48062C3F84021D3F873
:10379000402102F480620292029AD3F8402142F45E
:1037A0000072C3F84021D3F8402102F40072039262
:1037B000039AD3F8402142F48072C3F84021D3F831
:1037C0004031099503F480730493049BFF23CDE9F2
:1037D0000744CDE9053607F087FF4FF6FF7305A9CB
:1037E00011480995CDE90536CDE9074407F07CFF7E
:1037F0004FF4704305A90D480995CDE90536CDE98B
:10380000074407F071FF58202246052107F068FBA6
:10381000582007F097FB3AB070BD00BF0010005071
:103820000044025800280258002402580020025880
:10383000154B07B502689A4223D1144B05215C2031
:10384000D3F8342142F40012C3F83421D3F83421E0
:1038500002F400120092009AD3F8342142F480421C
:10386000C3F834210022D3F8343103F480430193A8
:10387000019B07F035FB5C2003B05DF804EB07F01B
:1038800061BB03B05DF804FB0050005200440258D5
:1038900002680A4B9A420FD1094B5C20D3F83421BD
:1038A00022F40012C3F83421D3F8342122F48042E8
:1038B000C3F8342107F054BB704700BF00500052DA
:1038C00000440258026882B0084B9A420CD1084B5F
:1038D000D3F8502142F00202C3F85021D3F85031FE
:1038E00003F002030193019B02B070470004014002
:1038F00000440258026882B0084B9A420CD1084B2F
:10390000D3F8482142F04002C3F84821D3F84831A7
:1039100003F040030193019B02B070470018004080
:103920000044025810B588B004461422002103A8B0
:1039300028F090FD23681A4A934218D1194B802130
:103940001948D3F8402142F48072C3F84021D3F8DB
:10395000403103F480730193019B0223CDE90313EB
:10396000032303A9079307F0BFFE08B010BD0F4A59
:103970009342FAD10B4B03A90D48D3F8402142F0F2
:103980000202C3F840214FF40042D3F8403103F063
:1039900002030293029B0223CDE903230793E2E78C
:1039A0000004014000440258002002580018004062
:1039B00000040258F0B5B7B00021142201A828F085
:1039C00049FD2F4B1968002957D1012208A81A6018
:1039D000B82228F03FFD4FF08072002306A8CDE901
:1039E00006230BF09BF808B1FFF7ECFC254B0227F0
:1039F00000260325D3F834210C2401A9224842F4DF
:103A00008052C3F83421D3F83431059403F4805341
:103A10000093009B48F23313CDE90365CDE90137EC
:103A200007F062FE4CF2037301A918480594CDE932
:103A30000137CDE9036507F057FE4FF6837301A9FF
:103A400013480594CDE90137CDE9036507F04CFE35
:103A50004FF63F0301A90F480594CDE90137CDE9A1
:103A6000036507F041FEE02301A90B480594CDE969
:103A70000137CDE9036507F037FE37B0F0BD00BF71
:103A8000E89E00240044025800180258000C025816
:103A90000010025800140258001C02580F2810B5DC
:103AA00004468AB002D901200AB010BD01460022A6
:103AB000362007F015FA362007F044FA184B69460D
:103AC00002A81C60174BD3F8482142F01002C3F83B
:103AD0004821D3F8483103F010030193019B0AF009
:103AE00007FF079BC3B90AF0DFFE0F4C0F4B2360A3
:103AF00040F2E733E3600E4BB0FBF3F001380023F4
:103B0000606020462361A3600CF0D2FA0028CAD17D
:103B100020460CF093F9C7E70AF0C6FE4000E4E740
:103B20006C00002400440258F09E00240010004065
:103B300040420F000A460146014828F029BB00BF59
:103B40009DE7020870471EF0040F0CBFEFF30880DA
:103B5000EFF3098000F034B8FEE7FEE7FEE7FEE78A
:103B60007047042007F059BF01480CF0A9B900BF05
:103B7000F09E0024014809F00DBB00BF309C0024DA
:103B8000014807F0E9BA00BF5C9E002401480AF032
:103B9000D9B800BFD49B0024014809F0B5B900BFD3
:103BA000B09D0024044808B509F0EEFC0348BDE8C8
:103BB000084009F0E9BC00BFD89C0024449D0024C3
:103BC000F0B5036889B0009343680193836802935A
:103BD000C368039303690493436905938369069358
:103BE000C3692C4807932C4B9C6ADF6A5E6B9D6B04
:103BF0000099FFF79FFF01992848FFF79BFF029963
:103C00002748FFF797FF03992648FFF793FF04998A
:103C10002548FFF78FFF05992448FFF78BFF06998A
:103C20002348FFF787FF07992248FFF783FF2146C4
:103C30002148FFF77FFF39462048FFF77BFF3146D9
:103C40001F48FFF777FF29461E48FFF773FFE60777
:103C500002D51D4828F004FBA50702D51B4828F013
:103C6000FFFA200702D51A4828F0FAFAE10602D531
:103C7000184828F0F5FAE20302D5174828F0F0FAC0
:103C8000630305D5154809B0BDE8F04028F0E8BA4F
:103C900009B0F0BDACE7020800ED00E0AFE70208B4
:103CA000B2E70208B5E70208B8E70208BCE7020875
:103CB000BFE70208C2E70208C7E70208CCE702082C
:103CC000D1E70208D7E70208DCE70208FFE70208AD
:103CD0001BE802083DE8020861E8020884E80208DF
:103CE0000120704708B528F069FC162303604FF0E7
:103CF000FF3008BD08B528F061FC16230360FEE71D
:103D000070B50D4614460E46731B9C4201DC2046DE
:103D100070BDAFF3008006F8010BF5E770B50D46F6
:103D200014460E46731B9C4201DC204670BD16F8FB
:103D3000010BAFF30080F5E74FF0FF3070474FF411
:103D4000005300204B6070470120704700207047EF
:103D50000A4A116808B5034609B909491160106893
:103D6000694603448B4206D928F028FC0C230360E3
:103D70004FF0FF3008BD1360FCE700BF3C9F0024FC
:103D8000004E0224806A7047704770477047704742
:103D900070477047704770477047704730B4446849
:103DA0000346C2689B68551004EB6200D20748BF07
:103DB000625930BC48BFD35818470346406830B1F9
:103DC0009A681AB9D86800F001007047012070475E
:103DD00090F82D3080F85C3070470146343091F80F
:103DE0002C3013B1623116F055B96031FBE710B5D4
:103DF0000446082127F0E6FA204610BD10B5044617
:103E0000642127F0DFFA204610BD10B504461021CA
:103E100027F0D8FA204610BD10B504464FF43A7189
:103E200027F0D0FA204610BD10B50446006B50B103
:103E30000368DB68984730B1206B21460368BDE812
:103E400010409B68184710BD0B7970B504460D46AD
:103E500090F82C600BB916B170BD002EFCD0B3FAEF
:103E600083F320465B0984F82C302368D3F88C3028
:103E70009847236820465B699847002EECD02B7941
:103E8000012BE9D123682046D3F88830BDE8704083
:103E900018479830884208B505D118F0C5FCBDE830
:103EA000084000F0D7BE08BD036870B504461B6B20
:103EB000154698472368204629465B6BBDE870404D
:103EC0001847036870B504469B6B154698472368EE
:103ED00020462946DB6BBDE8704018470B8870B55B
:103EE0000546A0F860301388044625F8623F28464E
:103EF0001CF04EFC064628461CF07EFC314602466D
:103F00002046FFF7DEFF23682046D3F88C30BDE85B
:103F1000704018470022C0E90122C0E90322C0E92D
:103F20000522C0E907224FF480728284014A0260B0
:103F3000704700BFA4FB020838B504460D46262290
:103F4000002128F087FA2046FFF7E4FF064B2046C1
:103F5000294623602B88E384FF2384F8283016F059
:103F600099F8204638BD00BF7C29030810B50446E7
:103F70002622002128F06EFA2046FFF7CBFF0A4BDD
:103F80004FF47F0220462360084BA3624FF6FF7375
:103F9000A3850023C4E90C324FF0FF322387E3638B
:103FA000C4E9102310BD00BF1C2803080CFC020844
:103FB0004FF47F43F7B5838540F201130025064691
:103FC00083840446124B4FF6FF77856201A905638F
:103FD000ADF80470C0E90155C0E90355C0E90555C5
:103FE000C0E9075546F8343B3046FFF7A5FF2A469F
:103FF00029463046A4F86070A4F86270FFF754FFB9
:10400000204631460EF086FE204603B0F0BD00BFCC
:104010001CFC02082DE9F04F04468FB000251AF071
:104020005BFD2746BE4B26222946E56304F1980A2C
:1040300047F8403B384628F00DFA3846FFF76AFF4C
:10404000B84B4FF6FF7604F1FC082364FF230CA95C
:10405000A56684F8663004F16C03ADF8306004F5B1
:10406000247B18460593FFF767FF5046FFF7A0FF34
:104070000CA94046ADF8306015F0C2F804F5947311
:10408000261D4FF07F4918460093FFF76FFF04F598
:10409000B87318460193FFF769FF04F5DC731846FF
:1040A0000293FFF763FF04F5007318460393FFF7CD
:1040B0005DFF04F5127318460493FFF757FF584647
:1040C000FFF754FF984B2A4629463846C4E9B634D0
:1040D000964BC4E9B835FFF7E7FE4FF488723846CF
:1040E0004FF4F071FFF7EDFE39463046C4F86890A2
:1040F0000EF010FE2A4629460598FFF7D5FED52377
:104100000CA90598ADF8303015F0C4FF059930467C
:104110000EF000FEDD230CAA0BA95046ADF82C30A2
:10412000ADF83030FFF7DAFE2A46294604F1CC001C
:1041300006AFFFF7B9FE04F5367350461022C4F8F7
:10414000C8301221FFF7B0FE212250461146FFF77A
:10415000B8FE514630460EF0DDFDDB230CA940468B
:10416000ADF8303015F096FF4046A9224FF4BD71EE
:10417000FFF79AFE5B2240465421FFF7A2FE294634
:10418000404614F0F8FF41463046DFF8AC810EF0AF
:10419000C1FD5B2200980A21FFF786FE0099384690
:1041A000C4F85891A4F85C5115F0D4FA04F5B27330
:1041B00097E8070083E807000F230CA90098ADF8E3
:1041C0003430CDF8308015F05FFD009930460EF0A8
:1041D000A1FD762201980921FFF766FE544B019953
:1041E0003846C4F8A031A4F8A45115F0B3FA04F588
:1041F000D67397E8070083E807000E230CA90198FF
:10420000ADF83430CDF8308015F03EFD01993046E0
:104210000EF080FD7C220298DF21FFF745FE029917
:104220003846C4F8E891A4F8EC5115F093FA04F577
:10423000FA7397E8070083E807000D230CA902989A
:10424000ADF83430CDF8308015F01EFD02993046BF
:104250000EF060FDD32203989F21FFF725FE0399FE
:104260003846C4F83092A4F8345215F073FA04F5C5
:104270000F7397E8070083E807000C230CA9039845
:10428000ADF83430CDF8308015F0FEFC039930469F
:104290000EF040FDD72204981321FFF705FE049984
:1042A0003846C4F87892A4F87C524FF00B0915F008
:1042B00051FA04F5217397E8070083E807000CA979
:1042C0000498CDF83080ADF8349015F0DDFC0499F9
:1042D00030460EF01FFD4A465846AF21FFF7E4FD79
:1042E000144B59463846C4F8C032A4F8C45215F0ED
:1042F00031FA04F5337397E8070083E807002523B4
:104300000CA95846CDF83080ADF8343015F0BCFC1F
:10431000304659460EF0FEFC20460FB0BDE8F08F47
:10432000D4FC0208AC280308BCFC0208933E000839
:104330008C2D26FFD12913FF0CFC02087047704713
:10434000704730B444680346C2689B68551004EB5C
:104350006200D20748BF625930BC48BFD3581847E3
:104360000346406830B19A681AB9D86800F0010075
:1043700070470120704710B50446102127F022F83D
:10438000204610BD10B504464FF4CE7127F01AF840
:10439000204610BD9830884208B505D118F044FA7F
:1043A000BDE8084000F056BC08BD00002DE9F04F04
:1043B000044689B000251AF08FFB2646604B262262
:1043C0002946E56304F16C0B46F8403B304628F083
:1043D00041F83046FFF79EFD5A4B04F1980A06A9B2
:1043E0002364FF2304F1FC09584684F866304FF635
:1043F000FF73A56604F5A278ADF81830FFF79CFDB1
:104400005046271DFFF7D4FD4846FFF7AFFD404655
:10441000FFF7ACFD4C4B2A4629463046C4E96334CD
:104420004A4BC4E96535FFF73FFD4FF488723046CB
:104430004FF4F071FFF745FD4FF07F4331463846AA
:10444000A3666E460EF066FC2A4629465846FFF7DC
:104450002BFDD52206A95846ADF8182015F01AFEF6
:10446000594638460EF056FCDD2205A95046ADF8F7
:104470001420ADF8182006AAFFF730FD2A46294679
:1044800004F1CC00FFF710FD04F5C672504612216E
:10449000C4F8C8201022FFF707FD2122504611461C
:1044A000FFF70FFD51463846DFF8A8A00EF032FCAA
:1044B00048460C22C121FFF7F7FC254A4946304601
:1044C000C4F82C21A4F8305115F044F904F59C7C73
:1044D00096E807008CE80700242206A94846CDF894
:1044E00018A0ADF81C2015F0CFFB494638460EF059
:1044F00011FC7C2240466C21FFF7D6FC4FF07F4335
:1045000041463046C4F87431A4F8785115F022F9C8
:1045100004F5C07396E8070083E80700092306A99D
:104520004046CDF818A0ADF81C3015F0ADFB38466C
:1045300041460EF0EFFB204609B0BDE8F08F00BF0A
:1045400020FD0208AC28030808FD02089543000876
:10455000D12913FF0CFC0208704708B50B2933D88A
:10456000DFE801F00A060A0E12161A1E22262A2E6B
:1045700003F064F8406808BD03F060F80068FAE7EB
:1045800003F05CF88068F6E703F058F8C068F2E7DB
:1045900003F054F80069EEE703F050F84069EAE7E9
:1045A00003F04CF88069E6E703F048F8C069E2E7F9
:1045B00003F044F8006ADEE703F040F8406ADAE707
:1045C00003F03CF8806AD6E70020D4E710B5044633
:1045D000042126F0F7FE204610BD00000048704779
:1045E00060FD0208DF20704713B5002451B1036855
:1045F00001AA01948DF803409C680DF10303A047C4
:1046000002B010BD0846FBE7C0897047008A7047BA
:10461000C088704780887047807A00F07F007047BC
:10462000807AC00970470020704700009FED010AA2
:10463000704700BF000000007047704700F5987396
:104640000868496803C37047704770474160704706
:1046500070477047064BC0F84801C0F84C31002342
:10466000C0F8503100F5A273C0F84031704700BF68
:10467000494A00080123037270477047704770472A
:1046800038B5054640680368DB699847044604B9B5
:1046900038BDE1882046AB89C91A236809B25B6B33
:1046A0009847A469F3E710B441680346C2689B6861
:1046B000541001EB6200D20748BF0A595DF8044B61
:1046C00048BFD35818470346406830B19A681AB9B2
:1046D000D86800F0010070470120704710B504460B
:1046E0000C2126F06FFE204610BD10B504461021A7
:1046F00026F068FE204610BD10B50446102126F0B5
:1047000061FE204610BD10B504464FF4AE7126F090
:1047100059FE204610BD10B50446402126F052FE39
:10472000204610BD10B518F07FF80368BDE81040B2
:10473000DB6B184710B518F077F80368BDE8104038
:104740005B6B184737B50546807A01306B7AC0B28B
:104750009842A87205D901232B720023AB7203B0D3
:1047600030BDB5F90C200021B5F90E401AF066FBFA
:10477000C30707D500284FF6FF73C8BF012313FAFC
:1047800080F000B2AB7A041BE881012BA4B206D101
:10479000174B1B781BB118F047F818F04BF80023A3
:1047A000144AADF800301288EB891A445B42ADF828
:1047B0000220114AADF806301288ADF8042018F036
:1047C00033F802AA036812E906001B6C9847686870
:1047D0000368DB6998470546002DC0D0E988284664
:1047E0002B6821445B6B09B29847AD69F4E700BFC1
:1047F000DA400224D2400224D0400224054B014674
:104800001B782BB1406818B103680C315B6E1847F8
:10481000704700BFDB400224037A70B50546BBB980
:1048200040680368DB69984704463CB9686805F14D
:104830000C010368BDE870401B6E1847A188204634
:104840006B8FC91A236809B21B6B9847A469ECE700
:1048500070BD10B50446D0F8400158B10368DB685C
:10486000984738B1D4F8400103689B689847002303
:10487000C4F8403110BD70B5044690F839000130DD
:1048800094F83830C0B2984284F8390005D9012331
:104890002372002384F8393070BDB4F93A20002126
:1048A0001AF0CCFAC30706D500284FF6FF73C8BF2D
:1048B0000123184400B2238AC01AA08760680368E5
:1048C000DB69984705462DB960680368BDE870400C
:1048D0005B691847A9882846A38F19442B6809B239
:1048E0001B6B9847AD69EEE72DE9F14FD0E9556AAA
:1048F0000746B06803681B6A9847B0F50F7F05D27A
:10490000484BA321484A494827F07EFA706803685B
:104910001B6A98470F2803D8454BA421424AF2E767
:10492000F06803681B6A98470F2803D8414BA521FC
:104930003D4AE8E7DFF8089117F076FF043017F0FA
:10494000D9FFD9F8000010B10368DB689847D9F89F
:10495000000010B103681B689847DFF8E880D8F8BA
:10496000000010B103685B699847D7F83C0110B1AB
:1049700003685B689847D8F8000010B103681B68AB
:104980009847D7F83C0110B103689B689847F068D6
:1049900000214FF0000B03685B6A9847264B0446E2
:1049A00080F80AB003604FF4A053C0F804B0594631
:1049B0000381224BA0F80EB01B885B428381B06854
:1049C00003685B6A9847054604F07EFA70685946AA
:1049D00003685B6A98470646294604F053FA331D7C
:1049E000C7F83C612846C9F80040C8F80050CAF82A
:1049F00000302B68C6F808A0DB68EE639847336880
:104A000030461B689847214628461AF011FA236859
:104A100020461B699847236820465B6901B0BDE8C2
:104A2000F04F1847A2E8020830E9020816EA020827
:104A30005DEA020800EB0208880F0308D240022456
:104A400024410224204102242DE9F14FD0E9556A86
:104A50000746B06803681B6A9847B0F5887F05D29F
:104A6000444BA321444A454827F0CEF970680368B7
:104A70001B6A98470F2803D8414BA4213E4AF2E70E
:104A8000F06803681B6A98470B2803D83D4BA521A3
:104A9000394AE8E7DFF8F49017F0C6FE043017F063
:104AA00029FFD9F8000010B10368DB689847D9F8EE
:104AB000000010B103681B689847DFF8D480D8F86D
:104AC000000010B103685B699847D7F83C0110B14A
:104AD00003685B689847D8F8000010B103681B684A
:104AE0009847D7F83C0110B103689B689847F06875
:104AF00000214FF0000B03685B6A9847224B044685
:104B0000C0F804B080F808B059460360B068036884
:104B10005B6A9847054603F031FF706859460368A1
:104B20005B6A98470646294603F006FF331DC7F81F
:104B30003C612846C9F80040C8F80050CAF8003067
:104B40002B68C6F808A0DB68EE63984733683046E8
:104B50001B689847214628461AF06AF923682046C0
:104B60001B699847236820465B6901B0BDE8F04F98
:104B7000184700BFA2E80208A3EB020816EA0208E1
:104B80005DEA020800EB0208400F030824410224FA
:104B900020410224044B1B6893F858200AB1D86CBA
:104BA00000B99868704700BFDC400224F8B517468A
:104BB00004460E4617F070FF124B00251C60294674
:104BC000114B2360114BC4E95135114B1868C4E9EE
:104BD00053550368C4E94F559B68C4E95576984717
:104BE000284602F0DFFCFFF7D5FF20F060FDFFF75D
:104BF000D1FF20F0D3FDFFF7CDFF20F0DBFD2046F5
:104C0000F8BD00BF30410224EC0E0308D40E0308A7
:104C1000DC400224064BC0F84801C0F84C310023A8
:104C2000C0F8503100F5A273C0F84031704700BFA2
:104C3000494A0008064BC0F84801C0F84C3100232F
:104C4000C0F8503100F5A273C0F84031704700BF82
:104C5000B1530008064BC0F84801C0F84C3100239E
:104C6000C0F8503100F5A273C0F84031704700BF62
:104C700079520008064BC0F84801C0F84C310023B7
:104C8000C0F8503100F5A273C0F84031704700BF42
:104C90003D510008064BC0F84801C0F84C310023D4
:104CA000C0F8503100F5A273C0F84031704700BF22
:104CB00001500008064BC0F84801C0F84C310023F1
:104CC000C0F8503100F5A273C0F84031704700BF02
:104CD000C94E0008064BC0F84801C0F84C3100230B
:104CE000C0F8503100F5A273C0F84031704700BFE2
:104CF000914D0008064BC0F84801C0F84C31002324
:104D0000C0F8503100F5A273C0F84031704700BFC1
:104D1000E948000803685B6A184700002DE9F04184
:104D2000174B00260546044646600F46067245F8B6
:104D30000C3B284614F018F9124B84F838701B7895
:104D400084F83960A68723B9012323722046BDE881
:104D5000F0810D4B28460D4FB3F90080E368B7F999
:104D600000109B6B26619847E36841462846DB6B41
:104D70009847284614F074F83B885B426387E5E760
:104D8000640F0308DB400224D2400224D0400224F6
:104D90002DE9F047D0E9556A0746B06803681B6AF9
:104DA0009847B0F5CE7F05D2404BA321404A4148F9
:104DB00027F02AF8706803681B6A98470F2803D801
:104DC0003D4BA4213A4AF2E7F06803681B6A984712
:104DD0003F2803D8394BA521354AE8E7DFF8E090B2
:104DE00017F022FD043017F085FDD9F8000010B14E
:104DF0000368DB689847D9F8000010B103681B68A6
:104E00009847DFF8C080D8F8000010B103685B69EC
:104E10009847D7F83C0110B103685B689847D8F809
:104E2000000010B103681B689847D7F83C0110B127
:104E300003689B6898470021F068FFF76BFF142117
:104E40000446FFF76BFFB068002103685B6A984770
:104E5000054603F0F9FC7068002103685B6A984717
:104E60000646294603F0CEFC331DC7F83C612846B0
:104E7000C9F80040C8F80050CAF800302B68C6F8DE
:104E800008A0DB68EE639847336830461B68984794
:104E90002146284619F0CCFF236820461B69984715
:104EA000236820465B69BDE8F0471847A2E802087E
:104EB0008BEC020816EA02085DEA020800EB020821
:104EC00024410224204102242DE9F047D0E9556A0B
:104ED0000746B06803681B6A9847B0F53A7F05D269
:104EE000404BA321404A414826F08EFF706803687A
:104EF0001B6A98470F2803D83D4BA4213A4AF2E792
:104F0000F06803681B6A98473F2803D8394BA521EE
:104F1000354AE8E7DFF8E09017F086FC043017F038
:104F2000E9FCD9F8000010B10368DB689847D9F8AC
:104F3000000010B103681B689847DFF8C080D8F8FC
:104F4000000010B103685B699847D7F83C0110B1C5
:104F500003685B689847D8F8000010B103681B68C5
:104F60009847D7F83C0110B103689B689847002127
:104F7000F068FFF7CFFE14210446FFF7CFFEB068BC
:104F8000002103685B6A9847054603F021FC7068BE
:104F9000002103685B6A98470646294603F0F6FB42
:104FA000331DC7F83C612846C9F80040C8F80050D6
:104FB000CAF800302B68C6F808A0DB68EE63984793
:104FC000336830461B6898472146284619F030FF61
:104FD000236820461B699847236820465B69BDE823
:104FE000F0471847A2E802086CED020816EA02082A
:104FF0005DEA020800EB0208244102242041022459
:105000002DE9F047D0E9556A0746B06803681B6A86
:10501000984742F6BB13984205D8414BA321414A19
:10502000414826F0F1FE706803681B6A98470F2814
:1050300003D83E4BA4213B4AF2E7F06803681B6AA1
:1050400098473F2803D83A4BA521364AE8E7DFF8CE
:10505000E49017F0E9FB043017F04CFCD9F800009D
:1050600010B10368DB689847D9F8000010B10368F5
:105070001B689847DFF8C080D8F8000010B10368BB
:105080005B699847D7F83C0110B103685B689847A3
:10509000D8F8000010B103681B689847D7F83C01A6
:1050A00010B103689B6898470021F068FFF732FE53
:1050B00014210446FFF732FEB068002103685B6AE2
:1050C0009847054603F0DAFC7068002103685B6AC4
:1050D00098470646294603F06BFC331DC7F83C6130
:1050E0002846C9F80040C8F80050CAF800302B68BC
:1050F000C6F808A0DB68EE639847336830461B6843
:1051000098472146284619F093FE236820461B69DC
:105110009847236820465B69BDE8F047184700BF01
:10512000A2E802084DEE020816EA02085DEA02084B
:1051300000EB020824410224204102242DE9F0471B
:10514000D0E9556A0746B06803681B6A984742F27F
:105150009373984205D8414BA321414A414826F018
:1051600053FE706803681B6A98470F2803D83E4BAC
:10517000A4213B4AF2E7F06803681B6A98473F287E
:1051800003D83A4BA521364AE8E7DFF8E49017F058
:105190004BFB043017F0AEFBD9F8000010B10368E8
:1051A000DB689847D9F8000010B103681B6898477E
:1051B000DFF8C080D8F8000010B103685B69984739
:1051C000D7F83C0110B103685B689847D8F8000035
:1051D00010B103681B689847D7F83C0110B1036809
:1051E0009B6898470021F068FFF794FD142104465E
:1051F000FFF794FDB068002103685B6A9847054695
:1052000003F0E6FC7068002103685B6A9847064675
:10521000294603F0BBFC331DC7F83C612846C9F89A
:105220000040C8F80050CAF800302B68C6F808A043
:10523000DB68EE639847336830461B689847214621
:10524000284619F0F5FD236820461B699847236816
:1052500020465B69BDE8F047184700BFA2E8020896
:1052600030EF020816EA02085DEA020800EB0208C5
:1052700024410224204102242DE9F047D0E9556A57
:105280000746B06803681B6A9847B0F55A7F05D295
:10529000404BA321404A414826F0B6FD70680368A0
:1052A0001B6A98470F2803D83D4BA4213A4AF2E7DE
:1052B000F06803681B6A98473F2803D8394BA5213B
:1052C000354AE8E7DFF8E09017F0AEFA043017F05F
:1052D00011FBD9F8000010B10368DB689847D9F8D2
:1052E000000010B103681B689847DFF8C080D8F849
:1052F000000010B103685B699847D7F83C0110B112
:1053000003685B689847D8F8000010B103681B6811
:105310009847D7F83C0110B103689B689847002173
:10532000F068FFF7F7FC14210446FFF7F7FCB068BC
:10533000002103685B6A9847054603F0DFFA70684E
:10534000002103685B6A98470646294603F0B4FAD1
:10535000331DC7F83C612846C9F80040C8F8005022
:10536000CAF800302B68C6F808A0DB68EE639847DF
:10537000336830461B6898472146284619F058FD87
:10538000236820461B699847236820465B69BDE86F
:10539000F0471847A2E8020817F0020816EA0208C8
:1053A0005DEA020800EB02082441022420410224A5
:1053B0002DE9F047D0E9556A0746B06803681B6AD3
:1053C0009847B0F5887F05D2404BA321404A414819
:1053D00026F01AFD706803681B6A98470F2803D8E7
:1053E0003D4BA4213A4AF2E7F06803681B6A9847EC
:1053F0003F2803D8394BA521354AE8E7DFF8E0908C
:1054000017F012FA043017F075FAD9F8000010B14D
:105410000368DB689847D9F8000010B103681B687F
:105420009847DFF8C080D8F8000010B103685B69C6
:105430009847D7F83C0110B103685B689847D8F8E3
:10544000000010B103681B689847D7F83C0110B101
:1054500003689B6898470021F068FFF75BFC142104
:105460000446FFF75BFCB068002103685B6A98475D
:10547000054603F083FA7068002103685B6A984769
:105480000646294603F058FA331DC7F83C61284602
:10549000C9F80040C8F80050CAF800302B68C6F8B8
:1054A00008A0DB68EE639847336830461B6898476E
:1054B0002146284619F0BCFC236820461B69984702
:1054C000236820465B69BDE8F0471847A2E8020858
:1054D000F6F0020816EA02085DEA020800EB02088C
:1054E0002441022420410224406A7047806A7047A8
:1054F00070470B888A889BB2D20A10B54C88C16964
:1055000043EA044351F82200184410BD10B5044684
:10551000BAB1107B68B1537BD27A1B0203F4E0630B
:105520001A43236A03EB82031A888A4202D193F951
:10553000020010BD05D80138043380B20028F3D131
:10554000F7E70020F5E710B504462C2125F03AFFD7
:10555000204610BD30B58BB00446BDF860500895AC
:10556000BDF85C5007959DF8505006959DF84C503D
:1055700005959DF8485004959DF8445003959DF875
:10558000405002959DF83C500195BDF8385000956B
:1055900018F0CCFF064B20462360159BE361169B59
:1055A0002362199B63621A9BA3620BB030BD00BFDC
:1055B000AC0F030870477047704730B44468034627
:1055C000C2689B68551004EB6200D20748BF62595D
:1055D00030BC48BFD35818470346406830B19A687A
:1055E0001AB9D86800F0010070470120704710B563
:1055F0000446102125F0E6FE204610BD10B50446F5
:105600004FF45A7125F0DEFE204610BD38B500F586
:105610008E7304460D46994203D117F005F9FFF742
:1056200029FB04F5F2739D4203D117F0FDF8FFF753
:1056300041FB04F5C0739D4203D117F0F5F8FFF765
:1056400029FB04F512739D4203D117F0EDF8FFF723
:1056500041FB04F52B74A54205D117F0E5F8BDE830
:105660003840FFF747BB38BD074A02600022C0E957
:105670000122C0E90322C0E90522C0E907224FF454
:1056800080728284704700BF4C2A030838B50446F4
:105690001D46FEF709FCBDF9102029462046FEF7FD
:1056A00010FC38BD2DE9F04F044691B0002519F0EB
:1056B00013FAA146D24B26222946E56304F1980A43
:1056C00049F8403B484626F0C5FE4846FFF7CCFF68
:1056D000CC4B4FF6FF7604F1C40B2364FF230EA9D5
:1056E000A56684F8663004F16C0304F1F008ADF8A7
:1056F000386018460293FEF71FFC0EA95046ADF81D
:10570000386013F07DFD0EA95846ADF8386013F0EF
:1057100077FD4046FFF7A8FFBB4BC4F8185104F5CE
:105720004477C4F8F03004F58E7318460393FEF7FF
:105730003FFC04F5C07318460493FEF739FC04F5EA
:10574000F27318460593FEF733FC04F512731846FE
:105750000693FEF72DFC04F52B7318460793FEF70E
:1057600027FC29462622384626F074FE3846FFF7E5
:105770007BFFA64B2A46A4F83C63C4F810332946A5
:10578000A34B4846C4F84053261DC4F838334FF4A1
:105790007F03A4F84853C4F844334FF0FF33C4F8F0
:1057A0004C53C4E9D4359B4BC4E9D6349A4BC4E975
:1057B000D8354FF4887300934FF4F073FFF766FF0A
:1057C0004FF07F4349463046A3664FF064090DF021
:1057D000A1FA2A4629460298FEF766FBD5230EA9B0
:1057E0000298ADF8383014F055FC029930460DF0AF
:1057F00091FAD2230EA95046ADF8383014F04AFC85
:105800005E230E22504640F27B1100936123FFF786
:105810003DFF2946504613F0AEFC514630460DF090
:1058200079FAD6230EA95846ADF8383014F032FC78
:10583000502308225846CDF800900621FFF726FF96
:105840002946584613F097FC594630460DF062FA47
:105850004046CDF800904FF4D97376221421FFF71B
:1058600015FFDC230EAA0DA9039804F55679ADF8AF
:105870003430ADF83830FEF731FB2A46294604F5BE
:10588000A870FEF711FB422311220398C4F84C9133
:105890000C2100934123FFF7F9FE039940460DF0D8
:1058A00039FAD7230EAA0DA90498ADF83430ADF813
:1058B0003830FEF713FB2A46294604F5DA70FEF766
:1058C000F3FA412312220498C4F8B0918A2100937C
:1058D0004023FFF7DBFE049940460DF01BFAD4236A
:1058E0000EAA0DA90598ADF83430ADF83830FEF7A2
:1058F000F5FA2A46294604F50670FEF7D5FA3D2347
:1059000010220598C4F814924FF4BA7100933E2304
:10591000FFF7BCFE059940460DF0FCF90EAA0DA953
:105920000698ADF83450ADF83850FEF7D7FA2A464D
:10593000294604F51F70FEF7B7FA3E230F2206989A
:10594000C4F8789240F203110093FFF79FFE069986
:1059500040460DF0DFF94146304604F553780DF02E
:10596000D9F9D9230EAA0DA90798ADF83430ADF8AE
:105970003830FEF7B3FA2A46294604F5387008ADE8
:10598000FEF792FA2323E4220798C4F8DC9240F24F
:10599000AF1100932123FFF779FE079930460DF0F0
:1059A000B9F915223846B421FEF77EFA1B4B394669
:1059B0002846C4F840330123A4F8443313F0CAFE48
:1059C000062395E8070088E807003946284684F84A
:1059D000493313F0BFFE0E4B95E807000E932123C9
:1059E00088E807000EA93846ADF83C3014F04CF9B1
:1059F000304639460DF08EF9204611B0BDE8F08FE3
:105A00002C100308AC280308181C03081C280308E2
:105A10000CFC0208141003080D560008D12913FFCE
:105A2000704770477047704730B444680346C26897
:105A30009B68551004EB6200D20748BF625930BC26
:105A400048BFD35818470346406830B19A681AB91E
:105A5000D86800F0010070470120704710B5044677
:105A6000102125F0AFFC204610BD10B504464FF4C0
:105A7000887125F0A7FC204610BD9830884208B5F3
:105A800005D116F0D1FEBDE80840FFF7E3B808BD28
:105A90002DE9F04F87B0044619F01EF85E4B002543
:105AA00004F16C0823604FF480795C4B4FF6FF776C
:105AB00005A9A4F864904046E563256604F19806BC
:105AC000A5664FF0010AADF814704FF4887BC4E965
:105AD0001035FF23C4E9125584F86630C4E9145523
